{
  "_format": "hh-sol-artifact-1",
  "contractName": "InsecureEtherVault",
  "sourceName": "contracts/InsecureEtherVault.sol",
  "abi": [
    {
      "inputs": [],
      "name": "deposit",
      "outputs": [],
      "stateMutability": "payable",
      "type": "function"
    },
    {
      "inputs": [],
      "name": "getEtherBalance",
      "outputs": [
        {
          "internalType": "uint256",
          "name": "",
          "type": "uint256"
        }
      ],
      "stateMutability": "view",
      "type": "function"
    },
    {
      "inputs": [
        {
          "internalType": "address",
          "name": "_user",
          "type": "address"
        }
      ],
      "name": "getUserBalance",
      "outputs": [
        {
          "internalType": "uint256",
          "name": "",
          "type": "uint256"
        }
      ],
      "stateMutability": "view",
      "type": "function"
    },
    {
      "inputs": [
        {
          "internalType": "uint256",
          "name": "_amount",
          "type": "uint256"
        }
      ],
      "name": "withdraw",
      "outputs": [],
      "stateMutability": "nonpayable",
      "type": "function"
    }
  ],
  "bytecode": "0x608060405234801561001057600080fd5b50610714806100206000396000f3fe60806040526004361061003f5760003560e01c80632e1a7d4d14610044578063477348921461006d578063d0e30db0146100aa578063ea46193e146100b4575b600080fd5b34801561005057600080fd5b5061006b600480360381019061006691906103a8565b6100df565b005b34801561007957600080fd5b50610094600480360381019061008f9190610433565b6102c4565b6040516100a1919061046f565b60405180910390f35b6100b261030d565b005b3480156100c057600080fd5b506100c9610365565b6040516100d6919061046f565b60405180910390f35b60008054906101000a900460ff161561012d576040517f08c379a0000000000000000000000000000000000000000000000000000000008152600401610124906104e7565b60405180910390fd5b60016000806101000a81548160ff0219169083151502179055506000610152336102c4565b9050600082826101629190610536565b10156101a3576040517f08c379a000000000000000000000000000000000000000000000000000000000815260040161019a906105b6565b60405180910390fd5b81600160003373ffffffffffffffffffffffffffffffffffffffff1673ffffffffffffffffffffffffffffffffffffffff16815260200190815260200160002060008282546101f29190610536565b9250508190555060003373ffffffffffffffffffffffffffffffffffffffff168360405161021f90610607565b60006040518083038185875af1925050503d806000811461025c576040519150601f19603f3d011682016040523d82523d6000602084013e610261565b606091505b50509050806102a5576040517f08c379a000000000000000000000000000000000000000000000000000000000815260040161029c90610668565b60405180910390fd5b505060008060006101000a81548160ff02191690831515021790555050565b6000600160008373ffffffffffffffffffffffffffffffffffffffff1673ffffffffffffffffffffffffffffffffffffffff168152602001908152602001600020549050919050565b34600160003373ffffffffffffffffffffffffffffffffffffffff1673ffffffffffffffffffffffffffffffffffffffff168152602001908152602001600020600082825461035c9190610688565b92505081905550565b600047905090565b600080fd5b6000819050919050565b61038581610372565b811461039057600080fd5b50565b6000813590506103a28161037c565b92915050565b6000602082840312156103be576103bd61036d565b5b60006103cc84828501610393565b91505092915050565b600073ffffffffffffffffffffffffffffffffffffffff82169050919050565b6000610400826103d5565b9050919050565b610410816103f5565b811461041b57600080fd5b50565b60008135905061042d81610407565b92915050565b6000602082840312156104495761044861036d565b5b60006104578482850161041e565b91505092915050565b61046981610372565b82525050565b60006020820190506104846000830184610460565b92915050565b600082825260208201905092915050565b7f4e6f2072652d656e7472616e6379000000000000000000000000000000000000600082015250565b60006104d1600e8361048a565b91506104dc8261049b565b602082019050919050565b60006020820190508181036000830152610500816104c4565b9050919050565b7f4e487b7100000000000000000000000000000000000000000000000000000000600052601160045260246000fd5b600061054182610372565b915061054c83610372565b92508282101561055f5761055e610507565b5b828203905092915050565b7f496e73756666696369656e742062616c616e6365000000000000000000000000600082015250565b60006105a060148361048a565b91506105ab8261056a565b602082019050919050565b600060208201905081810360008301526105cf81610593565b9050919050565b600081905092915050565b50565b60006105f16000836105d6565b91506105fc826105e1565b600082019050919050565b6000610612826105e4565b9150819050919050565b7f4661696c656420746f2073656e64204574686572000000000000000000000000600082015250565b600061065260148361048a565b915061065d8261061c565b602082019050919050565b6000602082019050818103600083015261068181610645565b9050919050565b600061069382610372565b915061069e83610372565b9250827fffffffffffffffffffffffffffffffffffffffffffffffffffffffffffffffff038211156106d3576106d2610507565b5b82820190509291505056fea26469706673582212203bff1297ed3950f7cb4f2dc5adf7d60317ed31e61428753d771c3162a5458e9f64736f6c63430008090033",
  "linkReferences": {},
  "deployedLinkReferences": {}
}