{
  "_format": "hh-sol-artifact-1",
  "contractName": "InsecureEtherVault",
  "sourceName": "contracts/InsecureEtherVault.sol",
  "abi": [
    {
      "anonymous": false,
      "inputs": [
        {
          "indexed": false,
          "internalType": "address",
          "name": "user",
          "type": "address"
        },
        {
          "indexed": false,
          "internalType": "uint256",
          "name": "amount",
          "type": "uint256"
        }
      ],
      "name": "WithdrawAllEvent",
      "type": "event"
    },
    {
      "inputs": [],
      "name": "deposit",
      "outputs": [],
      "stateMutability": "payable",
      "type": "function"
    },
    {
      "inputs": [],
      "name": "getBalance",
      "outputs": [
        {
          "internalType": "uint256",
          "name": "",
          "type": "uint256"
        }
      ],
      "stateMutability": "view",
      "type": "function"
    },
    {
      "inputs": [],
      "name": "getSender",
      "outputs": [
        {
          "internalType": "address",
          "name": "",
          "type": "address"
        }
      ],
      "stateMutability": "view",
      "type": "function"
    },
    {
      "inputs": [
        {
          "internalType": "address",
          "name": "_user",
          "type": "address"
        }
      ],
      "name": "getUserBalance",
      "outputs": [
        {
          "internalType": "uint256",
          "name": "",
          "type": "uint256"
        }
      ],
      "stateMutability": "view",
      "type": "function"
    },
    {
      "inputs": [],
      "name": "withdrawAll",
      "outputs": [],
      "stateMutability": "nonpayable",
      "type": "function"
    }
  ],
  "bytecode": "0x608060405234801561001057600080fd5b50610699806100206000396000f3fe60806040526004361061004a5760003560e01c806312065fe01461004f578063477348921461007a5780635e01eb5a146100b7578063853828b6146100e2578063d0e30db0146100f9575b600080fd5b34801561005b57600080fd5b50610064610103565b60405161007191906103b1565b60405180910390f35b34801561008657600080fd5b506100a1600480360381019061009c919061042f565b61010b565b6040516100ae91906103b1565b60405180910390f35b3480156100c357600080fd5b506100cc610153565b6040516100d9919061046b565b60405180910390f35b3480156100ee57600080fd5b506100f761017d565b005b610101610300565b005b600047905090565b60008060008373ffffffffffffffffffffffffffffffffffffffff1673ffffffffffffffffffffffffffffffffffffffff168152602001908152602001600020549050919050565b6000600160009054906101000a900473ffffffffffffffffffffffffffffffffffffffff16905090565b60006101883361010b565b9050600081116101cd576040517f08c379a00000000000000000000000000000000000000000000000000000000081526004016101c4906104e3565b60405180910390fd5b7f2bd20150a637d72a74539599f66637c3ec4f6d3807458bf9e002061053ae167c33826040516101fe929190610503565b60405180910390a160003373ffffffffffffffffffffffffffffffffffffffff1682620186a0906040516102319061055d565b600060405180830381858888f193505050503d806000811461026f576040519150601f19603f3d011682016040523d82523d6000602084013e610274565b606091505b50509050806102b8576040517f08c379a00000000000000000000000000000000000000000000000000000000081526004016102af906105be565b60405180910390fd5b60008060003373ffffffffffffffffffffffffffffffffffffffff1673ffffffffffffffffffffffffffffffffffffffff168152602001908152602001600020819055505050565b346000803373ffffffffffffffffffffffffffffffffffffffff1673ffffffffffffffffffffffffffffffffffffffff168152602001908152602001600020600082825461034e919061060d565b9250508190555033600160006101000a81548173ffffffffffffffffffffffffffffffffffffffff021916908373ffffffffffffffffffffffffffffffffffffffff160217905550565b6000819050919050565b6103ab81610398565b82525050565b60006020820190506103c660008301846103a2565b92915050565b600080fd5b600073ffffffffffffffffffffffffffffffffffffffff82169050919050565b60006103fc826103d1565b9050919050565b61040c816103f1565b811461041757600080fd5b50565b60008135905061042981610403565b92915050565b600060208284031215610445576104446103cc565b5b60006104538482850161041a565b91505092915050565b610465816103f1565b82525050565b6000602082019050610480600083018461045c565b92915050565b600082825260208201905092915050565b7f496e73756666696369656e742062616c616e6365000000000000000000000000600082015250565b60006104cd601483610486565b91506104d882610497565b602082019050919050565b600060208201905081810360008301526104fc816104c0565b9050919050565b6000604082019050610518600083018561045c565b61052560208301846103a2565b9392505050565b600081905092915050565b50565b600061054760008361052c565b915061055282610537565b600082019050919050565b60006105688261053a565b9150819050919050565b7f4661696c656420746f2073656e64204574686572000000000000000000000000600082015250565b60006105a8601483610486565b91506105b382610572565b602082019050919050565b600060208201905081810360008301526105d78161059b565b9050919050565b7f4e487b7100000000000000000000000000000000000000000000000000000000600052601160045260246000fd5b600061061882610398565b915061062383610398565b9250827fffffffffffffffffffffffffffffffffffffffffffffffffffffffffffffffff03821115610658576106576105de565b5b82820190509291505056fea2646970667358221220c1498a3d10e51be55ee349cbf2eda8a0cb53c5623c444b7a37fb25b205d7c65064736f6c63430008090033",
  "linkReferences": {},
  "deployedLinkReferences": {}
}