{
  "_format": "hh-sol-artifact-1",
  "contractName": "InsecureEtherDAOVote",
  "sourceName": "contracts/InsecureEtherDAOVote.sol",
  "abi": [
    {
      "inputs": [
        {
          "internalType": "uint256",
          "name": "_voteDeadline",
          "type": "uint256"
        }
      ],
      "stateMutability": "nonpayable",
      "type": "constructor"
    },
    {
      "inputs": [
        {
          "internalType": "uint256",
          "name": "_candidateID",
          "type": "uint256"
        }
      ],
      "name": "getCandidate",
      "outputs": [
        {
          "components": [
            {
              "internalType": "string",
              "name": "name",
              "type": "string"
            },
            {
              "internalType": "uint256",
              "name": "totalVoteAmount",
              "type": "uint256"
            }
          ],
          "internalType": "struct InsecureEtherDAOVote.CEOCandidate",
          "name": "",
          "type": "tuple"
        }
      ],
      "stateMutability": "view",
      "type": "function"
    },
    {
      "inputs": [],
      "name": "getTotalCandidates",
      "outputs": [
        {
          "internalType": "uint256",
          "name": "",
          "type": "uint256"
        }
      ],
      "stateMutability": "view",
      "type": "function"
    },
    {
      "inputs": [
        {
          "internalType": "address",
          "name": "_user",
          "type": "address"
        }
      ],
      "name": "getUserVote",
      "outputs": [
        {
          "components": [
            {
              "internalType": "uint256",
              "name": "candidateID",
              "type": "uint256"
            },
            {
              "internalType": "uint256",
              "name": "voteAmount",
              "type": "uint256"
            },
            {
              "internalType": "bool",
              "name": "completed",
              "type": "bool"
            }
          ],
          "internalType": "struct InsecureEtherDAOVote.UserVote",
          "name": "",
          "type": "tuple"
        }
      ],
      "stateMutability": "view",
      "type": "function"
    },
    {
      "inputs": [
        {
          "internalType": "uint256",
          "name": "_candidateID",
          "type": "uint256"
        },
        {
          "internalType": "uint256",
          "name": "voteAmount",
          "type": "uint256"
        }
      ],
      "name": "vote",
      "outputs": [],
      "stateMutability": "nonpayable",
      "type": "function"
    },
    {
      "inputs": [],
      "name": "voteDeadline",
      "outputs": [
        {
          "internalType": "uint256",
          "name": "",
          "type": "uint256"
        }
      ],
      "stateMutability": "view",
      "type": "function"
    }
  ],
  "bytecode": "0x60a06040523480156200001157600080fd5b50604051620010cb380380620010cb833981810160405281019062000037919062000319565b8060808181525050600260405180604001604052806040518060400160405280600581526020017f416d696e650000000000000000000000000000000000000000000000000000008152508152602001600081525090806001815401808255809150506001900390600052602060002090600202016000909190919091506000820151816000019080519060200190620000d392919062000229565b50602082015181600101555050600260405180604001604052806040518060400160405280600981526020017f416264657261666965000000000000000000000000000000000000000000000081525081526020016000815250908060018154018082558091505060019003906000526020600020906002020160009091909190915060008201518160000190805190602001906200017492919062000229565b50602082015181600101555050600260405180604001604052806040518060400160405280600581526020017f447269737300000000000000000000000000000000000000000000000000000081525081526020016000815250908060018154018082558091505060019003906000526020600020906002020160009091909190915060008201518160000190805190602001906200021592919062000229565b5060208201518160010155505050620003b0565b82805462000237906200037a565b90600052602060002090601f0160209004810192826200025b5760008555620002a7565b82601f106200027657805160ff1916838001178555620002a7565b82800160010185558215620002a7579182015b82811115620002a657825182559160200191906001019062000289565b5b509050620002b69190620002ba565b5090565b5b80821115620002d5576000816000905550600101620002bb565b5090565b600080fd5b6000819050919050565b620002f381620002de565b8114620002ff57600080fd5b50565b6000815190506200031381620002e8565b92915050565b600060208284031215620003325762000331620002d9565b5b6000620003428482850162000302565b91505092915050565b7f4e487b7100000000000000000000000000000000000000000000000000000000600052602260045260246000fd5b600060028204905060018216806200039357607f821691505b60208210811415620003aa57620003a96200034b565b5b50919050565b608051610cf8620003d36000396000818161024201526102660152610cf86000f3fe608060405234801561001057600080fd5b50600436106100575760003560e01c80630deb56ab1461005c57806335b8e8201461007a57806383ca5a5b146100aa578063b384abef146100c8578063d4923d4e146100e4575b600080fd5b610064610114565b604051610071919061062b565b60405180910390f35b610094600480360381019061008f9190610677565b610121565b6040516100a19190610789565b60405180910390f35b6100b2610240565b6040516100bf919061062b565b60405180910390f35b6100e260048036038101906100dd91906107ab565b610264565b005b6100fe60048036038101906100f99190610849565b610505565b60405161010b91906108d3565b60405180910390f35b6000600280549050905090565b6101296105d5565b6002805490508210610170576040517f08c379a00000000000000000000000000000000000000000000000000000000081526004016101679061094b565b60405180910390fd5b600282815481106101845761018361096b565b5b90600052602060002090600202016040518060400160405290816000820180546101ad906109c9565b80601f01602080910402602001604051908101604052809291908181526020018280546101d9906109c9565b80156102265780601f106101fb57610100808354040283529160200191610226565b820191906000526020600020905b81548152906001019060200180831161020957829003601f168201915b505050505081526020016001820154815250509050919050565b7f000000000000000000000000000000000000000000000000000000000000000081565b7f000000000000000000000000000000000000000000000000000000000000000042106102c6576040517f08c379a00000000000000000000000000000000000000000000000000000000081526004016102bd90610a47565b60405180910390fd5b600160003373ffffffffffffffffffffffffffffffffffffffff1673ffffffffffffffffffffffffffffffffffffffff16815260200190815260200160002060020160009054906101000a900460ff1615610356576040517f08c379a000000000000000000000000000000000000000000000000000000000815260040161034d90610ab3565b60405180910390fd5b600280549050821061039d576040517f08c379a000000000000000000000000000000000000000000000000000000000815260040161039490610b1f565b60405180910390fd5b600081116103e0576040517f08c379a00000000000000000000000000000000000000000000000000000000081526004016103d790610bb1565b60405180910390fd5b60006103eb3361058d565b905081811015610430576040517f08c379a000000000000000000000000000000000000000000000000000000000815260040161042790610c1d565b60405180910390fd5b604051806060016040528084815260200183815260200160011515815250600160003373ffffffffffffffffffffffffffffffffffffffff1673ffffffffffffffffffffffffffffffffffffffff168152602001908152602001600020600082015181600001556020820151816001015560408201518160020160006101000a81548160ff02191690831515021790555090505081600284815481106104d9576104d861096b565b5b906000526020600020906002020160010160008282546104f99190610c6c565b92505081905550505050565b61050d6105ef565b600160008373ffffffffffffffffffffffffffffffffffffffff1673ffffffffffffffffffffffffffffffffffffffff16815260200190815260200160002060405180606001604052908160008201548152602001600182015481526020016002820160009054906101000a900460ff1615151515815250509050919050565b60008060008373ffffffffffffffffffffffffffffffffffffffff1673ffffffffffffffffffffffffffffffffffffffff168152602001908152602001600020549050919050565b604051806040016040528060608152602001600081525090565b604051806060016040528060008152602001600081526020016000151581525090565b6000819050919050565b61062581610612565b82525050565b6000602082019050610640600083018461061c565b92915050565b600080fd5b61065481610612565b811461065f57600080fd5b50565b6000813590506106718161064b565b92915050565b60006020828403121561068d5761068c610646565b5b600061069b84828501610662565b91505092915050565b600081519050919050565b600082825260208201905092915050565b60005b838110156106de5780820151818401526020810190506106c3565b838111156106ed576000848401525b50505050565b6000601f19601f8301169050919050565b600061070f826106a4565b61071981856106af565b93506107298185602086016106c0565b610732816106f3565b840191505092915050565b61074681610612565b82525050565b600060408301600083015184820360008601526107698282610704565b915050602083015161077e602086018261073d565b508091505092915050565b600060208201905081810360008301526107a3818461074c565b905092915050565b600080604083850312156107c2576107c1610646565b5b60006107d085828601610662565b92505060206107e185828601610662565b9150509250929050565b600073ffffffffffffffffffffffffffffffffffffffff82169050919050565b6000610816826107eb565b9050919050565b6108268161080b565b811461083157600080fd5b50565b6000813590506108438161081d565b92915050565b60006020828403121561085f5761085e610646565b5b600061086d84828501610834565b91505092915050565b60008115159050919050565b61088b81610876565b82525050565b6060820160008201516108a7600085018261073d565b5060208201516108ba602085018261073d565b5060408201516108cd6040850182610882565b50505050565b60006060820190506108e86000830184610891565b92915050565b600082825260208201905092915050565b7f496e76616c69642063616e646964617420696400000000000000000000000000600082015250565b60006109356013836108ee565b9150610940826108ff565b602082019050919050565b6000602082019050818103600083015261096481610928565b9050919050565b7f4e487b7100000000000000000000000000000000000000000000000000000000600052603260045260246000fd5b7f4e487b7100000000000000000000000000000000000000000000000000000000600052602260045260246000fd5b600060028204905060018216806109e157607f821691505b602082108114156109f5576109f461099a565b5b50919050565b7f566f746520697320646f6e650000000000000000000000000000000000000000600082015250565b6000610a31600c836108ee565b9150610a3c826109fb565b602082019050919050565b60006020820190508181036000830152610a6081610a24565b9050919050565b7f596f75206861766520616c726561647920766f74656400000000000000000000600082015250565b6000610a9d6016836108ee565b9150610aa882610a67565b602082019050919050565b60006020820190508181036000830152610acc81610a90565b9050919050565b7f496e76616c69642063616e646964617465206964000000000000000000000000600082015250565b6000610b096014836108ee565b9150610b1482610ad3565b602082019050919050565b60006020820190508181036000830152610b3881610afc565b9050919050565b7f566f746520616d6f756e74206d7573742062652067726561746572207468616e60008201527f2030000000000000000000000000000000000000000000000000000000000000602082015250565b6000610b9b6022836108ee565b9150610ba682610b3f565b604082019050919050565b60006020820190508181036000830152610bca81610b8e565b9050919050565b7f496e73756666696369656e742062616c616e636520746f20766f746500000000600082015250565b6000610c07601c836108ee565b9150610c1282610bd1565b602082019050919050565b60006020820190508181036000830152610c3681610bfa565b9050919050565b7f4e487b7100000000000000000000000000000000000000000000000000000000600052601160045260246000fd5b6000610c7782610612565b9150610c8283610612565b9250827fffffffffffffffffffffffffffffffffffffffffffffffffffffffffffffffff03821115610cb757610cb6610c3d565b5b82820190509291505056fea2646970667358221220cea556e832a2a59c444ae742808494e0f84a670e8fb2a3d61c32c0e880d5a3de64736f6c63430008090033",
  "linkReferences": {},
  "deployedLinkReferences": {}
}