{
  "_format": "hh-sol-artifact-1",
  "contractName": "NormalCall",
  "sourceName": "contracts/NormalCall.sol",
  "abi": [
    {
      "inputs": [
        {
          "internalType": "contract IEtherVault",
          "name": "_etherVault",
          "type": "address"
        }
      ],
      "stateMutability": "nonpayable",
      "type": "constructor"
    },
    {
      "inputs": [],
      "name": "NormalCall_",
      "outputs": [],
      "stateMutability": "payable",
      "type": "function"
    },
    {
      "inputs": [],
      "name": "etherVault",
      "outputs": [
        {
          "internalType": "contract IEtherVault",
          "name": "",
          "type": "address"
        }
      ],
      "stateMutability": "view",
      "type": "function"
    },
    {
      "inputs": [],
      "name": "getBalance",
      "outputs": [
        {
          "internalType": "uint256",
          "name": "",
          "type": "uint256"
        }
      ],
      "stateMutability": "view",
      "type": "function"
    },
    {
      "inputs": [],
      "name": "withdrawAll",
      "outputs": [],
      "stateMutability": "nonpayable",
      "type": "function"
    }
  ],
  "bytecode": "0x60a060405234801561001057600080fd5b506040516104f63803806104f6833981810160405281019061003291906100e1565b8073ffffffffffffffffffffffffffffffffffffffff1660808173ffffffffffffffffffffffffffffffffffffffff16815250505061010e565b600080fd5b600073ffffffffffffffffffffffffffffffffffffffff82169050919050565b600061009c82610071565b9050919050565b60006100ae82610091565b9050919050565b6100be816100a3565b81146100c957600080fd5b50565b6000815190506100db816100b5565b92915050565b6000602082840312156100f7576100f661006c565b5b6000610105848285016100cc565b91505092915050565b6080516103bf6101376000396000818161010f0152818161019a015261021c01526103bf6000f3fe60806040526004361061003f5760003560e01c806312065fe01461004457806344d851191461006f578063853828b614610079578063bc6548fb14610090575b600080fd5b34801561005057600080fd5b506100596100bb565b6040516100669190610257565b60405180910390f35b6100776100c3565b005b34801561008557600080fd5b5061008e610198565b005b34801561009c57600080fd5b506100a561021a565b6040516100b291906102f1565b60405180910390f35b600047905090565b670de0b6b3a7640000341461010d576040517f08c379a000000000000000000000000000000000000000000000000000000000815260040161010490610369565b60405180910390fd5b7f000000000000000000000000000000000000000000000000000000000000000073ffffffffffffffffffffffffffffffffffffffff1663d0e30db0670de0b6b3a76400006040518263ffffffff1660e01b81526004016000604051808303818588803b15801561017d57600080fd5b505af1158015610191573d6000803e3d6000fd5b5050505050565b7f000000000000000000000000000000000000000000000000000000000000000073ffffffffffffffffffffffffffffffffffffffff1663853828b66040518163ffffffff1660e01b8152600401600060405180830381600087803b15801561020057600080fd5b505af1158015610214573d6000803e3d6000fd5b50505050565b7f000000000000000000000000000000000000000000000000000000000000000081565b6000819050919050565b6102518161023e565b82525050565b600060208201905061026c6000830184610248565b92915050565b600073ffffffffffffffffffffffffffffffffffffffff82169050919050565b6000819050919050565b60006102b76102b26102ad84610272565b610292565b610272565b9050919050565b60006102c98261029c565b9050919050565b60006102db826102be565b9050919050565b6102eb816102d0565b82525050565b600060208201905061030660008301846102e2565b92915050565b600082825260208201905092915050565b7f5265717569726520312045746865720000000000000000000000000000000000600082015250565b6000610353600f8361030c565b915061035e8261031d565b602082019050919050565b6000602082019050818103600083015261038281610346565b905091905056fea2646970667358221220ae936326e10c8df1d41d7741a050594f3f140fa40e7c5574d095da957a836b1c64736f6c63430008090033",
  "linkReferences": {},
  "deployedLinkReferences": {}
}