{
  "_format": "hh-sol-artifact-1",
  "contractName": "VotingSystem",
  "sourceName": "contracts/VotingSystem.sol",
  "abi": [
    {
      "inputs": [],
      "stateMutability": "nonpayable",
      "type": "constructor"
    },
    {
      "anonymous": false,
      "inputs": [
        {
          "indexed": true,
          "internalType": "address",
          "name": "voter",
          "type": "address"
        },
        {
          "indexed": false,
          "internalType": "string",
          "name": "candidateName",
          "type": "string"
        }
      ],
      "name": "VoteCast",
      "type": "event"
    },
    {
      "inputs": [
        {
          "internalType": "string",
          "name": "",
          "type": "string"
        }
      ],
      "name": "candidateIndices",
      "outputs": [
        {
          "internalType": "uint256",
          "name": "",
          "type": "uint256"
        }
      ],
      "stateMutability": "view",
      "type": "function"
    },
    {
      "inputs": [
        {
          "internalType": "uint256",
          "name": "",
          "type": "uint256"
        }
      ],
      "name": "candidates",
      "outputs": [
        {
          "internalType": "string",
          "name": "name",
          "type": "string"
        },
        {
          "internalType": "uint256",
          "name": "voteCount",
          "type": "uint256"
        }
      ],
      "stateMutability": "view",
      "type": "function"
    },
    {
      "inputs": [
        {
          "internalType": "string",
          "name": "_candidateName",
          "type": "string"
        }
      ],
      "name": "castVote",
      "outputs": [],
      "stateMutability": "nonpayable",
      "type": "function"
    },
    {
      "inputs": [],
      "name": "endVoting",
      "outputs": [],
      "stateMutability": "nonpayable",
      "type": "function"
    },
    {
      "inputs": [],
      "name": "getCandidateCount",
      "outputs": [
        {
          "internalType": "uint256",
          "name": "",
          "type": "uint256"
        }
      ],
      "stateMutability": "view",
      "type": "function"
    },
    {
      "inputs": [
        {
          "internalType": "uint256",
          "name": "_index",
          "type": "uint256"
        }
      ],
      "name": "getCandidateDetails",
      "outputs": [
        {
          "internalType": "string",
          "name": "",
          "type": "string"
        },
        {
          "internalType": "uint256",
          "name": "",
          "type": "uint256"
        }
      ],
      "stateMutability": "view",
      "type": "function"
    },
    {
      "inputs": [
        {
          "internalType": "address",
          "name": "",
          "type": "address"
        }
      ],
      "name": "hasVoted",
      "outputs": [
        {
          "internalType": "bool",
          "name": "",
          "type": "bool"
        }
      ],
      "stateMutability": "view",
      "type": "function"
    },
    {
      "inputs": [],
      "name": "hasVoterVoted",
      "outputs": [
        {
          "internalType": "bool",
          "name": "",
          "type": "bool"
        }
      ],
      "stateMutability": "view",
      "type": "function"
    },
    {
      "inputs": [],
      "name": "owner",
      "outputs": [
        {
          "internalType": "address",
          "name": "",
          "type": "address"
        }
      ],
      "stateMutability": "view",
      "type": "function"
    },
    {
      "inputs": [
        {
          "internalType": "string",
          "name": "_name",
          "type": "string"
        }
      ],
      "name": "registerCandidate",
      "outputs": [],
      "stateMutability": "nonpayable",
      "type": "function"
    },
    {
      "inputs": [],
      "name": "startVoting",
      "outputs": [],
      "stateMutability": "nonpayable",
      "type": "function"
    },
    {
      "inputs": [],
      "name": "votingStatus",
      "outputs": [
        {
          "internalType": "enum VotingSystem.VotingStatus",
          "name": "",
          "type": "uint8"
        }
      ],
      "stateMutability": "view",
      "type": "function"
    }
  ],
  "bytecode": "0x608060405234801561001057600080fd5b50336000806101000a81548173ffffffffffffffffffffffffffffffffffffffff021916908373ffffffffffffffffffffffffffffffffffffffff1602179055506000600460006101000a81548160ff0219169083600281111561007757610076610081565b5b02179055506100b0565b7f4e487b7100000000000000000000000000000000000000000000000000000000600052602160045260246000fd5b611613806100bf6000396000f3fe608060405234801561001057600080fd5b50600436106100b45760003560e01c806356db1f241161007157806356db1f24146101915780638da5cb5b146101c15780639cc2d993146101df5780639eb88db6146101fb578063c3403ddf14610217578063db5f971e14610221576100b4565b806309eef43e146100b957806319f41a40146100e95780631ec6b60a1461010757806327f9fd501461011157806330a56347146101425780633477ee2e14610160575b600080fd5b6100d360048036038101906100ce9190610c8d565b61023f565b6040516100e09190610cd5565b60405180910390f35b6100f161025f565b6040516100fe9190610d67565b60405180910390f35b61010f610272565b005b61012b60048036038101906101269190610db8565b6103a3565b604051610139929190610e8d565b60405180910390f35b61014a6104ce565b6040516101579190610ebd565b60405180910390f35b61017a60048036038101906101759190610db8565b6104db565b604051610188929190610e8d565b60405180910390f35b6101ab60048036038101906101a6919061100d565b610597565b6040516101b89190610ebd565b60405180910390f35b6101c96105c5565b6040516101d69190611065565b60405180910390f35b6101f960048036038101906101f4919061100d565b6105e9565b005b6102156004803603810190610210919061100d565b61084f565b005b61021f6109f3565b005b610229610b24565b6040516102369190610cd5565b60405180910390f35b60026020528060005260406000206000915054906101000a900460ff1681565b600460009054906101000a900460ff1681565b60008054906101000a900473ffffffffffffffffffffffffffffffffffffffff1673ffffffffffffffffffffffffffffffffffffffff163373ffffffffffffffffffffffffffffffffffffffff1614610300576040517f08c379a00000000000000000000000000000000000000000000000000000000081526004016102f7906110f2565b60405180910390fd5b6000600281111561031457610313610cf0565b5b600460009054906101000a900460ff16600281111561033657610335610cf0565b5b14610376576040517f08c379a000000000000000000000000000000000000000000000000000000000815260040161036d9061115e565b60405180910390fd5b6001600460006101000a81548160ff0219169083600281111561039c5761039b610cf0565b5b0217905550565b6060600060018054905083106103ee576040517f08c379a00000000000000000000000000000000000000000000000000000000081526004016103e5906111ca565b60405180910390fd5b60018381548110610402576104016111ea565b5b906000526020600020906002020160000160018481548110610427576104266111ea565b5b90600052602060002090600202016001015481805461044590611248565b80601f016020809104026020016040519081016040528092919081815260200182805461047190611248565b80156104be5780601f10610493576101008083540402835291602001916104be565b820191906000526020600020905b8154815290600101906020018083116104a157829003601f168201915b5050505050915091509150915091565b6000600180549050905090565b600181815481106104eb57600080fd5b906000526020600020906002020160009150905080600001805461050e90611248565b80601f016020809104026020016040519081016040528092919081815260200182805461053a90611248565b80156105875780601f1061055c57610100808354040283529160200191610587565b820191906000526020600020905b81548152906001019060200180831161056a57829003601f168201915b5050505050908060010154905082565b6003818051602081018201805184825260208301602085012081835280955050505050506000915090505481565b60008054906101000a900473ffffffffffffffffffffffffffffffffffffffff1681565b600160028111156105fd576105fc610cf0565b5b600460009054906101000a900460ff16600281111561061f5761061e610cf0565b5b1461065f576040517f08c379a0000000000000000000000000000000000000000000000000000000008152600401610656906112c6565b60405180910390fd5b60006003826040516106719190611322565b908152602001604051809103902054116106c0576040517f08c379a00000000000000000000000000000000000000000000000000000000081526004016106b790611385565b60405180910390fd5b600260003373ffffffffffffffffffffffffffffffffffffffff1673ffffffffffffffffffffffffffffffffffffffff16815260200190815260200160002060009054906101000a900460ff161561074d576040517f08c379a0000000000000000000000000000000000000000000000000000000008152600401610744906113f1565b60405180910390fd5b600160038260405161075f9190611322565b9081526020016040518091039020548154811061077f5761077e6111ea565b5b906000526020600020906002020160010160008154809291906107a190611440565b91905055506001600260003373ffffffffffffffffffffffffffffffffffffffff1673ffffffffffffffffffffffffffffffffffffffff16815260200190815260200160002060006101000a81548160ff0219169083151502179055503373ffffffffffffffffffffffffffffffffffffffff167f866dc605853954ffa419910eb05d67f430efec2e7db7ce135bf55565667a4ab4826040516108449190611489565b60405180910390a250565b60008054906101000a900473ffffffffffffffffffffffffffffffffffffffff1673ffffffffffffffffffffffffffffffffffffffff163373ffffffffffffffffffffffffffffffffffffffff16146108dd576040517f08c379a00000000000000000000000000000000000000000000000000000000081526004016108d4906110f2565b60405180910390fd5b600060028111156108f1576108f0610cf0565b5b600460009054906101000a900460ff16600281111561091357610912610cf0565b5b14610953576040517f08c379a000000000000000000000000000000000000000000000000000000000815260040161094a9061151d565b60405180910390fd5b600160405180604001604052808381526020016000815250908060018154018082558091505060019003906000526020600020906002020160009091909190915060008201518160000190805190602001906109b0929190610b78565b50602082015181600101555050600180805490506109ce919061153d565b6003826040516109de9190611322565b90815260200160405180910390208190555050565b60008054906101000a900473ffffffffffffffffffffffffffffffffffffffff1673ffffffffffffffffffffffffffffffffffffffff163373ffffffffffffffffffffffffffffffffffffffff1614610a81576040517f08c379a0000000000000000000000000000000000000000000000000000000008152600401610a78906110f2565b60405180910390fd5b60016002811115610a9557610a94610cf0565b5b600460009054906101000a900460ff166002811115610ab757610ab6610cf0565b5b14610af7576040517f08c379a0000000000000000000000000000000000000000000000000000000008152600401610aee906115bd565b60405180910390fd5b6002600460006101000a81548160ff02191690836002811115610b1d57610b1c610cf0565b5b0217905550565b6000600260003373ffffffffffffffffffffffffffffffffffffffff1673ffffffffffffffffffffffffffffffffffffffff16815260200190815260200160002060009054906101000a900460ff16905090565b828054610b8490611248565b90600052602060002090601f016020900481019282610ba65760008555610bed565b82601f10610bbf57805160ff1916838001178555610bed565b82800160010185558215610bed579182015b82811115610bec578251825591602001919060010190610bd1565b5b509050610bfa9190610bfe565b5090565b5b80821115610c17576000816000905550600101610bff565b5090565b6000604051905090565b600080fd5b600080fd5b600073ffffffffffffffffffffffffffffffffffffffff82169050919050565b6000610c5a82610c2f565b9050919050565b610c6a81610c4f565b8114610c7557600080fd5b50565b600081359050610c8781610c61565b92915050565b600060208284031215610ca357610ca2610c25565b5b6000610cb184828501610c78565b91505092915050565b60008115159050919050565b610ccf81610cba565b82525050565b6000602082019050610cea6000830184610cc6565b92915050565b7f4e487b7100000000000000000000000000000000000000000000000000000000600052602160045260246000fd5b60038110610d3057610d2f610cf0565b5b50565b6000819050610d4182610d1f565b919050565b6000610d5182610d33565b9050919050565b610d6181610d46565b82525050565b6000602082019050610d7c6000830184610d58565b92915050565b6000819050919050565b610d9581610d82565b8114610da057600080fd5b50565b600081359050610db281610d8c565b92915050565b600060208284031215610dce57610dcd610c25565b5b6000610ddc84828501610da3565b91505092915050565b600081519050919050565b600082825260208201905092915050565b60005b83811015610e1f578082015181840152602081019050610e04565b83811115610e2e576000848401525b50505050565b6000601f19601f8301169050919050565b6000610e5082610de5565b610e5a8185610df0565b9350610e6a818560208601610e01565b610e7381610e34565b840191505092915050565b610e8781610d82565b82525050565b60006040820190508181036000830152610ea78185610e45565b9050610eb66020830184610e7e565b9392505050565b6000602082019050610ed26000830184610e7e565b92915050565b600080fd5b600080fd5b7f4e487b7100000000000000000000000000000000000000000000000000000000600052604160045260246000fd5b610f1a82610e34565b810181811067ffffffffffffffff82111715610f3957610f38610ee2565b5b80604052505050565b6000610f4c610c1b565b9050610f588282610f11565b919050565b600067ffffffffffffffff821115610f7857610f77610ee2565b5b610f8182610e34565b9050602081019050919050565b82818337600083830152505050565b6000610fb0610fab84610f5d565b610f42565b905082815260208101848484011115610fcc57610fcb610edd565b5b610fd7848285610f8e565b509392505050565b600082601f830112610ff457610ff3610ed8565b5b8135611004848260208601610f9d565b91505092915050565b60006020828403121561102357611022610c25565b5b600082013567ffffffffffffffff81111561104157611040610c2a565b5b61104d84828501610fdf565b91505092915050565b61105f81610c4f565b82525050565b600060208201905061107a6000830184611056565b92915050565b7f4f6e6c7920746865206f776e65722063616e2063616c6c20746869732066756e60008201527f6374696f6e000000000000000000000000000000000000000000000000000000602082015250565b60006110dc602583610df0565b91506110e782611080565b604082019050919050565b6000602082019050818103600083015261110b816110cf565b9050919050565b7f566f74696e672068617320616c72656164792073746172746564000000000000600082015250565b6000611148601a83610df0565b915061115382611112565b602082019050919050565b600060208201905081810360008301526111778161113b565b9050919050565b7f496e76616c69642063616e64696461746520696e646578000000000000000000600082015250565b60006111b4601783610df0565b91506111bf8261117e565b602082019050919050565b600060208201905081810360008301526111e3816111a7565b9050919050565b7f4e487b7100000000000000000000000000000000000000000000000000000000600052603260045260246000fd5b7f4e487b7100000000000000000000000000000000000000000000000000000000600052602260045260246000fd5b6000600282049050600182168061126057607f821691505b6020821081141561127457611273611219565b5b50919050565b7f566f74696e67206973206e6f742063757272656e746c79206f70656e00000000600082015250565b60006112b0601c83610df0565b91506112bb8261127a565b602082019050919050565b600060208201905081810360008301526112df816112a3565b9050919050565b600081905092915050565b60006112fc82610de5565b61130681856112e6565b9350611316818560208601610e01565b80840191505092915050565b600061132e82846112f1565b915081905092915050565b7f496e76616c69642063616e646964617465000000000000000000000000000000600082015250565b600061136f601183610df0565b915061137a82611339565b602082019050919050565b6000602082019050818103600083015261139e81611362565b9050919050565b7f596f75206861766520616c726561647920766f74656400000000000000000000600082015250565b60006113db601683610df0565b91506113e6826113a5565b602082019050919050565b6000602082019050818103600083015261140a816113ce565b9050919050565b7f4e487b7100000000000000000000000000000000000000000000000000000000600052601160045260246000fd5b600061144b82610d82565b91507fffffffffffffffffffffffffffffffffffffffffffffffffffffffffffffffff82141561147e5761147d611411565b5b600182019050919050565b600060208201905081810360008301526114a38184610e45565b905092915050565b7f43616e6e6f742072656769737465722063616e6469646174657320616674657260008201527f20766f74696e6720686173207374617274656400000000000000000000000000602082015250565b6000611507603383610df0565b9150611512826114ab565b604082019050919050565b60006020820190508181036000830152611536816114fa565b9050919050565b600061154882610d82565b915061155383610d82565b92508282101561156657611565611411565b5b828203905092915050565b7f566f74696e6720686173206e6f74207374617274656400000000000000000000600082015250565b60006115a7601683610df0565b91506115b282611571565b602082019050919050565b600060208201905081810360008301526115d68161159a565b905091905056fea26469706673582212205e8a7194f7032f458b839cf3e2764efde681784797d6ecc43deac83fab13652164736f6c63430008090033",
  "linkReferences": {},
  "deployedLinkReferences": {}
}