{
  "_format": "hh-sol-artifact-1",
  "contractName": "CounterCaller",
  "sourceName": "contracts/Counter.sol",
  "abi": [
    {
      "inputs": [
        {
          "internalType": "address",
          "name": "_counterAddress",
          "type": "address"
        }
      ],
      "stateMutability": "nonpayable",
      "type": "constructor"
    },
    {
      "inputs": [],
      "name": "callRetrieve",
      "outputs": [
        {
          "internalType": "uint256",
          "name": "",
          "type": "uint256"
        }
      ],
      "stateMutability": "view",
      "type": "function"
    }
  ],
  "bytecode": "0x608060405234801561001057600080fd5b506040516102d33803806102d3833981810160405281019061003291906100db565b806000806101000a81548173ffffffffffffffffffffffffffffffffffffffff021916908373ffffffffffffffffffffffffffffffffffffffff16021790555050610108565b600080fd5b600073ffffffffffffffffffffffffffffffffffffffff82169050919050565b60006100a88261007d565b9050919050565b6100b88161009d565b81146100c357600080fd5b50565b6000815190506100d5816100af565b92915050565b6000602082840312156100f1576100f0610078565b5b60006100ff848285016100c6565b91505092915050565b6101bc806101176000396000f3fe608060405234801561001057600080fd5b506004361061002b5760003560e01c806374d1fb9014610030575b600080fd5b61003861004e565b604051610045919061010d565b60405180910390f35b60008060009054906101000a900473ffffffffffffffffffffffffffffffffffffffff1673ffffffffffffffffffffffffffffffffffffffff16632e64cec16040518163ffffffff1660e01b815260040160206040518083038186803b1580156100b757600080fd5b505afa1580156100cb573d6000803e3d6000fd5b505050506040513d601f19601f820116820180604052508101906100ef9190610159565b905090565b6000819050919050565b610107816100f4565b82525050565b600060208201905061012260008301846100fe565b92915050565b600080fd5b610136816100f4565b811461014157600080fd5b50565b6000815190506101538161012d565b92915050565b60006020828403121561016f5761016e610128565b5b600061017d84828501610144565b9150509291505056fea264697066735822122066062f8de74ba2d41ffc8a15bad63a24cc68cfbc9aef375aa63a7854cec1555264736f6c63430008090033",
  "linkReferences": {},
  "deployedLinkReferences": {}
}