{
  "_format": "hh-sol-artifact-1",
  "contractName": "AttackBoss",
  "sourceName": "contracts/AttackServant.sol",
  "abi": [
    {
      "inputs": [
        {
          "internalType": "contract IEtherDAOVote",
          "name": "_etherDaoVote",
          "type": "address"
        }
      ],
      "stateMutability": "nonpayable",
      "type": "constructor"
    },
    {
      "inputs": [
        {
          "internalType": "uint256",
          "name": "_candidateID",
          "type": "uint256"
        },
        {
          "internalType": "uint256",
          "name": "nbAttacks",
          "type": "uint256"
        }
      ],
      "name": "attack",
      "outputs": [],
      "stateMutability": "payable",
      "type": "function"
    },
    {
      "inputs": [],
      "name": "etherDaoVote",
      "outputs": [
        {
          "internalType": "contract IEtherDAOVote",
          "name": "",
          "type": "address"
        }
      ],
      "stateMutability": "view",
      "type": "function"
    }
  ],
  "bytecode": "0x60a060405234801561001057600080fd5b50604051610a32380380610a32833981810160405281019061003291906100e1565b8073ffffffffffffffffffffffffffffffffffffffff1660808173ffffffffffffffffffffffffffffffffffffffff16815250505061010e565b600080fd5b600073ffffffffffffffffffffffffffffffffffffffff82169050919050565b600061009c82610071565b9050919050565b60006100ae82610091565b9050919050565b6100be816100a3565b81146100c957600080fd5b50565b6000815190506100db816100b5565b92915050565b6000602082840312156100f7576100f661006c565b5b6000610105848285016100cc565b91505092915050565b60805161090461012e600039600081816077015260f901526109046000f3fe6080604052600436106100295760003560e01c8063aa50679b1461002e578063e1fa763814610059575b600080fd5b34801561003a57600080fd5b50610043610075565b604051610050919061025f565b60405180910390f35b610073600480360381019061006e91906102b5565b610099565b005b7f000000000000000000000000000000000000000000000000000000000000000081565b6000349050670de0b6b3a76400008110156100e9576040517f08c379a00000000000000000000000000000000000000000000000000000000081526004016100e090610352565b60405180910390fd5b60005b828110156101cd576000827f0000000000000000000000000000000000000000000000000000000000000000604051610124906101d3565b61012e919061025f565b6040518091039082f090508015801561014b573d6000803e3d6000fd5b5090508073ffffffffffffffffffffffffffffffffffffffff166364dd891a866040518263ffffffff1660e01b81526004016101879190610381565b600060405180830381600087803b1580156101a157600080fd5b505af11580156101b5573d6000803e3d6000fd5b505050505080806101c5906103cb565b9150506100ec565b50505050565b6104ba8061041583390190565b600073ffffffffffffffffffffffffffffffffffffffff82169050919050565b6000819050919050565b600061022561022061021b846101e0565b610200565b6101e0565b9050919050565b60006102378261020a565b9050919050565b60006102498261022c565b9050919050565b6102598161023e565b82525050565b60006020820190506102746000830184610250565b92915050565b600080fd5b6000819050919050565b6102928161027f565b811461029d57600080fd5b50565b6000813590506102af81610289565b92915050565b600080604083850312156102cc576102cb61027a565b5b60006102da858286016102a0565b92505060206102eb858286016102a0565b9150509250929050565b600082825260208201905092915050565b7f4174206c65617374203120746f6b656e20746f2061747461636b000000000000600082015250565b600061033c601a836102f5565b915061034782610306565b602082019050919050565b6000602082019050818103600083015261036b8161032f565b9050919050565b61037b8161027f565b82525050565b60006020820190506103966000830184610372565b92915050565b7f4e487b7100000000000000000000000000000000000000000000000000000000600052601160045260246000fd5b60006103d68261027f565b91507fffffffffffffffffffffffffffffffffffffffffffffffffffffffffffffffff8214156104095761040861039c565b5b60018201905091905056fe60a06040526040516104ba3803806104ba833981810160405281019061002591906100d4565b8073ffffffffffffffffffffffffffffffffffffffff1660808173ffffffffffffffffffffffffffffffffffffffff168152505050610101565b600080fd5b600073ffffffffffffffffffffffffffffffffffffffff82169050919050565b600061008f82610064565b9050919050565b60006100a182610084565b9050919050565b6100b181610096565b81146100bc57600080fd5b50565b6000815190506100ce816100a8565b92915050565b6000602082840312156100ea576100e961005f565b5b60006100f8848285016100bf565b91505092915050565b6080516103986101226000396000818160c2015261019701526103986000f3fe6080604052600436106100295760003560e01c806364dd891a1461002e578063aa50679b1461004a575b600080fd5b610048600480360381019061004391906101f4565b610075565b005b34801561005657600080fd5b5061005f610195565b60405161006c91906102a0565b60405180910390f35b670de0b6b3a76400003410156100c0576040517f08c379a00000000000000000000000000000000000000000000000000000000081526004016100b790610318565b60405180910390fd5b7f000000000000000000000000000000000000000000000000000000000000000073ffffffffffffffffffffffffffffffffffffffff16630121b93f826040518263ffffffff1660e01b81526004016101199190610347565b600060405180830381600087803b15801561013357600080fd5b505af1158015610147573d6000803e3d6000fd5b505050503373ffffffffffffffffffffffffffffffffffffffff166108fc349081150290604051600060405180830381858888f19350505050158015610191573d6000803e3d6000fd5b5050565b7f000000000000000000000000000000000000000000000000000000000000000081565b600080fd5b6000819050919050565b6101d1816101be565b81146101dc57600080fd5b50565b6000813590506101ee816101c8565b92915050565b60006020828403121561020a576102096101b9565b5b6000610218848285016101df565b91505092915050565b600073ffffffffffffffffffffffffffffffffffffffff82169050919050565b6000819050919050565b600061026661026161025c84610221565b610241565b610221565b9050919050565b60006102788261024b565b9050919050565b600061028a8261026d565b9050919050565b61029a8161027f565b82525050565b60006020820190506102b56000830184610291565b92915050565b600082825260208201905092915050565b7f4174206c65617374203120746f6b656e20746f2061747461636b000000000000600082015250565b6000610302601a836102bb565b915061030d826102cc565b602082019050919050565b60006020820190508181036000830152610331816102f5565b9050919050565b610341816101be565b82525050565b600060208201905061035c6000830184610338565b9291505056fea2646970667358221220932188469c7df3cc6ca591813687ce1265b70337c5a1d10d1413eb2db13dfbd864736f6c63430008090033a2646970667358221220300e2260c0151189a1523bc3e9146bf73bf789bba9063b95f34ce9cd3810b4ac64736f6c63430008090033",
  "linkReferences": {},
  "deployedLinkReferences": {}
}