{
  "_format": "hh-sol-artifact-1",
  "contractName": "InsecureNaiveBank",
  "sourceName": "contracts/InsecureNaiveBank.sol",
  "abi": [
    {
      "inputs": [],
      "stateMutability": "nonpayable",
      "type": "constructor"
    },
    {
      "anonymous": false,
      "inputs": [
        {
          "indexed": false,
          "internalType": "address",
          "name": "user",
          "type": "address"
        },
        {
          "indexed": false,
          "internalType": "uint256",
          "name": "index",
          "type": "uint256"
        }
      ],
      "name": "RegisterUser",
      "type": "event"
    },
    {
      "anonymous": false,
      "inputs": [],
      "name": "applyInterestEvent",
      "type": "event"
    },
    {
      "inputs": [],
      "name": "INTEREST_RATE",
      "outputs": [
        {
          "internalType": "uint256",
          "name": "",
          "type": "uint256"
        }
      ],
      "stateMutability": "view",
      "type": "function"
    },
    {
      "inputs": [],
      "name": "applyInterest",
      "outputs": [
        {
          "internalType": "uint256",
          "name": "minBankBalanceRequired_",
          "type": "uint256"
        }
      ],
      "stateMutability": "nonpayable",
      "type": "function"
    },
    {
      "inputs": [],
      "name": "deposit",
      "outputs": [],
      "stateMutability": "payable",
      "type": "function"
    },
    {
      "inputs": [],
      "name": "depositBankFunds",
      "outputs": [],
      "stateMutability": "payable",
      "type": "function"
    },
    {
      "inputs": [],
      "name": "getBankBalance",
      "outputs": [
        {
          "internalType": "uint256",
          "name": "",
          "type": "uint256"
        }
      ],
      "stateMutability": "view",
      "type": "function"
    },
    {
      "inputs": [
        {
          "internalType": "address",
          "name": "_user",
          "type": "address"
        }
      ],
      "name": "getUserBalance",
      "outputs": [
        {
          "internalType": "uint256",
          "name": "",
          "type": "uint256"
        }
      ],
      "stateMutability": "view",
      "type": "function"
    },
    {
      "inputs": [],
      "name": "owner",
      "outputs": [
        {
          "internalType": "address",
          "name": "",
          "type": "address"
        }
      ],
      "stateMutability": "view",
      "type": "function"
    },
    {
      "inputs": [
        {
          "internalType": "uint256",
          "name": "_withdrawAmount",
          "type": "uint256"
        }
      ],
      "name": "withdraw",
      "outputs": [],
      "stateMutability": "nonpayable",
      "type": "function"
    }
  ],
  "bytecode": "0x60a060405234801561001057600080fd5b503373ffffffffffffffffffffffffffffffffffffffff1660808173ffffffffffffffffffffffffffffffffffffffff1681525050608051610dbc61006e6000396000818161038d0152818161045601526106210152610dbc6000f3fe60806040526004361061007b5760003560e01c80637b83b50b1161004e5780637b83b50b1461011b5780638da5cb5b14610146578063d0e30db014610171578063d961d1901461017b5761007b565b80632e1a7d4d1461008057806347734892146100a95780634bf516b4146100e65780635b72a33a146100f0575b600080fd5b34801561008c57600080fd5b506100a760048036038101906100a2919061085f565b6101a6565b005b3480156100b557600080fd5b506100d060048036038101906100cb91906108ea565b61032c565b6040516100dd9190610926565b60405180910390f35b6100ee610374565b005b3480156100fc57600080fd5b50610105610447565b6040516101129190610926565b60405180910390f35b34801561012757600080fd5b5061013061044c565b60405161013d9190610926565b60405180910390f35b34801561015257600080fd5b5061015b610454565b6040516101689190610950565b60405180910390f35b610179610478565b005b34801561018757600080fd5b50610190610606565b60405161019d9190610926565b60405180910390f35b806000803373ffffffffffffffffffffffffffffffffffffffff1673ffffffffffffffffffffffffffffffffffffffff168152602001908152602001600020541015610227576040517f08c379a000000000000000000000000000000000000000000000000000000000815260040161021e906109c8565b60405180910390fd5b806000803373ffffffffffffffffffffffffffffffffffffffff1673ffffffffffffffffffffffffffffffffffffffff16815260200190815260200160002060008282546102759190610a17565b9250508190555060003373ffffffffffffffffffffffffffffffffffffffff16826040516102a290610a7c565b60006040518083038185875af1925050503d80600081146102df576040519150601f19603f3d011682016040523d82523d6000602084013e6102e4565b606091505b5050905080610328576040517f08c379a000000000000000000000000000000000000000000000000000000000815260040161031f90610add565b60405180910390fd5b5050565b60008060008373ffffffffffffffffffffffffffffffffffffffff1673ffffffffffffffffffffffffffffffffffffffff168152602001908152602001600020549050919050565b3373ffffffffffffffffffffffffffffffffffffffff167f000000000000000000000000000000000000000000000000000000000000000073ffffffffffffffffffffffffffffffffffffffff1614610402576040517f08c379a00000000000000000000000000000000000000000000000000000000081526004016103f990610b49565b60405180910390fd5b60003411610445576040517f08c379a000000000000000000000000000000000000000000000000000000000815260040161043c90610bb5565b60405180910390fd5b565b600581565b600047905090565b7f000000000000000000000000000000000000000000000000000000000000000081565b600034116104bb576040517f08c379a00000000000000000000000000000000000000000000000000000000081526004016104b290610bb5565b60405180910390fd5b60008060003373ffffffffffffffffffffffffffffffffffffffff1673ffffffffffffffffffffffffffffffffffffffff1681526020019081526020016000205414156105af576001339080600181540180825580915050600190039060005260206000200160009091909190916101000a81548173ffffffffffffffffffffffffffffffffffffffff021916908373ffffffffffffffffffffffffffffffffffffffff1602179055507f721da55c3f9ea8457b79364e644713bdb29658b1a884fe72b2503e61fa80c19733600180805490506105989190610a17565b6040516105a6929190610bd5565b60405180910390a15b346000803373ffffffffffffffffffffffffffffffffffffffff1673ffffffffffffffffffffffffffffffffffffffff16815260200190815260200160002060008282546105fd9190610bfe565b92505081905550565b60003373ffffffffffffffffffffffffffffffffffffffff167f000000000000000000000000000000000000000000000000000000000000000073ffffffffffffffffffffffffffffffffffffffff1614610696576040517f08c379a000000000000000000000000000000000000000000000000000000000815260040161068d90610b49565b60405180910390fd5b7fca4c2e4bb8c1c82813fef6b04873f72f60c1fb63939b72636e5d5ccbf8ce248d60405160405180910390a160005b600180549050811015610820576000600182815481106106e8576106e7610c54565b5b9060005260206000200160009054906101000a900473ffffffffffffffffffffffffffffffffffffffff16905060008060008373ffffffffffffffffffffffffffffffffffffffff1673ffffffffffffffffffffffffffffffffffffffff1681526020019081526020016000205490506064600560646107689190610bfe565b826107739190610c83565b61077d9190610d0c565b6000808473ffffffffffffffffffffffffffffffffffffffff1673ffffffffffffffffffffffffffffffffffffffff168152602001908152602001600020819055506000808373ffffffffffffffffffffffffffffffffffffffff1673ffffffffffffffffffffffffffffffffffffffff16815260200190815260200160002054846108099190610bfe565b93505050808061081890610d3d565b9150506106c5565b5090565b600080fd5b6000819050919050565b61083c81610829565b811461084757600080fd5b50565b60008135905061085981610833565b92915050565b60006020828403121561087557610874610824565b5b60006108838482850161084a565b91505092915050565b600073ffffffffffffffffffffffffffffffffffffffff82169050919050565b60006108b78261088c565b9050919050565b6108c7816108ac565b81146108d257600080fd5b50565b6000813590506108e4816108be565b92915050565b600060208284031215610900576108ff610824565b5b600061090e848285016108d5565b91505092915050565b61092081610829565b82525050565b600060208201905061093b6000830184610917565b92915050565b61094a816108ac565b82525050565b60006020820190506109656000830184610941565b92915050565b600082825260208201905092915050565b7f496e73756666696369656e742062616c616e6365000000000000000000000000600082015250565b60006109b260148361096b565b91506109bd8261097c565b602082019050919050565b600060208201905081810360008301526109e1816109a5565b9050919050565b7f4e487b7100000000000000000000000000000000000000000000000000000000600052601160045260246000fd5b6000610a2282610829565b9150610a2d83610829565b925082821015610a4057610a3f6109e8565b5b828203905092915050565b600081905092915050565b50565b6000610a66600083610a4b565b9150610a7182610a56565b600082019050919050565b6000610a8782610a59565b9150819050919050565b7f4661696c656420746f2073656e64204574686572000000000000000000000000600082015250565b6000610ac760148361096b565b9150610ad282610a91565b602082019050919050565b60006020820190508181036000830152610af681610aba565b9050919050565b7f596f7520617265206e6f7420746865206f776e65720000000000000000000000600082015250565b6000610b3360158361096b565b9150610b3e82610afd565b602082019050919050565b60006020820190508181036000830152610b6281610b26565b9050919050565b7f5265717569726520736f6d652066756e64730000000000000000000000000000600082015250565b6000610b9f60128361096b565b9150610baa82610b69565b602082019050919050565b60006020820190508181036000830152610bce81610b92565b9050919050565b6000604082019050610bea6000830185610941565b610bf76020830184610917565b9392505050565b6000610c0982610829565b9150610c1483610829565b9250827fffffffffffffffffffffffffffffffffffffffffffffffffffffffffffffffff03821115610c4957610c486109e8565b5b828201905092915050565b7f4e487b7100000000000000000000000000000000000000000000000000000000600052603260045260246000fd5b6000610c8e82610829565b9150610c9983610829565b9250817fffffffffffffffffffffffffffffffffffffffffffffffffffffffffffffffff0483118215151615610cd257610cd16109e8565b5b828202905092915050565b7f4e487b7100000000000000000000000000000000000000000000000000000000600052601260045260246000fd5b6000610d1782610829565b9150610d2283610829565b925082610d3257610d31610cdd565b5b828204905092915050565b6000610d4882610829565b91507fffffffffffffffffffffffffffffffffffffffffffffffffffffffffffffffff821415610d7b57610d7a6109e8565b5b60018201905091905056fea264697066735822122087f06b5f2e5ec8e02be1a92da489af993f5e6c8d4e5d0307eff1476ec5d95afc64736f6c63430008090033",
  "linkReferences": {},
  "deployedLinkReferences": {}
}