{
  "_format": "hh-sol-artifact-1",
  "contractName": "Attack",
  "sourceName": "contracts/Attack.sol",
  "abi": [
    {
      "inputs": [
        {
          "internalType": "contract IEtherVault",
          "name": "_etherVault",
          "type": "address"
        }
      ],
      "stateMutability": "nonpayable",
      "type": "constructor"
    },
    {
      "inputs": [],
      "name": "attack",
      "outputs": [],
      "stateMutability": "nonpayable",
      "type": "function"
    },
    {
      "inputs": [],
      "name": "etherVault",
      "outputs": [
        {
          "internalType": "contract IEtherVault",
          "name": "",
          "type": "address"
        }
      ],
      "stateMutability": "view",
      "type": "function"
    },
    {
      "inputs": [],
      "name": "getEtherBalance",
      "outputs": [
        {
          "internalType": "uint256",
          "name": "",
          "type": "uint256"
        }
      ],
      "stateMutability": "view",
      "type": "function"
    },
    {
      "stateMutability": "payable",
      "type": "receive"
    }
  ],
  "bytecode": "0x60a060405234801561001057600080fd5b5060405161049e38038061049e833981810160405281019061003291906100e1565b8073ffffffffffffffffffffffffffffffffffffffff1660808173ffffffffffffffffffffffffffffffffffffffff16815250505061010e565b600080fd5b600073ffffffffffffffffffffffffffffffffffffffff82169050919050565b600061009c82610071565b9050919050565b60006100ae82610091565b9050919050565b6100be816100a3565b81146100c957600080fd5b50565b6000815190506100db816100b5565b92915050565b6000602082840312156100f7576100f661006c565b5b6000610105848285016100cc565b91505092915050565b6080516103696101356000396000818160b30152818160ef01526101dd01526103696000f3fe6080604052600436106100385760003560e01c80639e5faafc14610044578063bc6548fb1461005b578063ea46193e146100865761003f565b3661003f57005b600080fd5b34801561005057600080fd5b506100596100b1565b005b34801561006757600080fd5b506100706101db565b60405161007d9190610286565b60405180910390f35b34801561009257600080fd5b5061009b6101ff565b6040516100a891906102ba565b60405180910390f35b7f000000000000000000000000000000000000000000000000000000000000000073ffffffffffffffffffffffffffffffffffffffff16632e1a7d4d7f000000000000000000000000000000000000000000000000000000000000000073ffffffffffffffffffffffffffffffffffffffff1663ea46193e6040518163ffffffff1660e01b815260040160206040518083038186803b15801561015357600080fd5b505afa158015610167573d6000803e3d6000fd5b505050506040513d601f19601f8201168201806040525081019061018b9190610306565b6040518263ffffffff1660e01b81526004016101a791906102ba565b600060405180830381600087803b1580156101c157600080fd5b505af11580156101d5573d6000803e3d6000fd5b50505050565b7f000000000000000000000000000000000000000000000000000000000000000081565b600047905090565b600073ffffffffffffffffffffffffffffffffffffffff82169050919050565b6000819050919050565b600061024c61024761024284610207565b610227565b610207565b9050919050565b600061025e82610231565b9050919050565b600061027082610253565b9050919050565b61028081610265565b82525050565b600060208201905061029b6000830184610277565b92915050565b6000819050919050565b6102b4816102a1565b82525050565b60006020820190506102cf60008301846102ab565b92915050565b600080fd5b6102e3816102a1565b81146102ee57600080fd5b50565b600081519050610300816102da565b92915050565b60006020828403121561031c5761031b6102d5565b5b600061032a848285016102f1565b9150509291505056fea2646970667358221220641b9c64e00f4e1bf0c3f40993a6d87e98e74e8489db45367f36cbd0f89a466f64736f6c63430008090033",
  "linkReferences": {},
  "deployedLinkReferences": {}
}