{
  "_format": "hh-sol-artifact-1",
  "contractName": "SimpleVault",
  "sourceName": "contracts/SimpleVault.sol",
  "abi": [
    {
      "inputs": [],
      "name": "deposit",
      "outputs": [],
      "stateMutability": "payable",
      "type": "function"
    },
    {
      "inputs": [],
      "name": "getBalance",
      "outputs": [
        {
          "internalType": "uint256",
          "name": "",
          "type": "uint256"
        }
      ],
      "stateMutability": "view",
      "type": "function"
    },
    {
      "inputs": [
        {
          "internalType": "address",
          "name": "_user",
          "type": "address"
        }
      ],
      "name": "getUserBalance",
      "outputs": [
        {
          "internalType": "uint256",
          "name": "",
          "type": "uint256"
        }
      ],
      "stateMutability": "view",
      "type": "function"
    }
  ],
  "bytecode": "0x608060405234801561001057600080fd5b506102d1806100206000396000f3fe6080604052600436106100345760003560e01c806312065fe0146100395780634773489214610064578063d0e30db0146100a1575b600080fd5b34801561004557600080fd5b5061004e6100ab565b60405161005b919061016b565b60405180910390f35b34801561007057600080fd5b5061008b600480360381019061008691906101e9565b6100b3565b604051610098919061016b565b60405180910390f35b6100a96100fb565b005b600047905090565b60008060008373ffffffffffffffffffffffffffffffffffffffff1673ffffffffffffffffffffffffffffffffffffffff168152602001908152602001600020549050919050565b346000803373ffffffffffffffffffffffffffffffffffffffff1673ffffffffffffffffffffffffffffffffffffffff16815260200190815260200160002060008282546101499190610245565b92505081905550565b6000819050919050565b61016581610152565b82525050565b6000602082019050610180600083018461015c565b92915050565b600080fd5b600073ffffffffffffffffffffffffffffffffffffffff82169050919050565b60006101b68261018b565b9050919050565b6101c6816101ab565b81146101d157600080fd5b50565b6000813590506101e3816101bd565b92915050565b6000602082840312156101ff576101fe610186565b5b600061020d848285016101d4565b91505092915050565b7f4e487b7100000000000000000000000000000000000000000000000000000000600052601160045260246000fd5b600061025082610152565b915061025b83610152565b9250827fffffffffffffffffffffffffffffffffffffffffffffffffffffffffffffffff038211156102905761028f610216565b5b82820190509291505056fea264697066735822122089724b1dbea10cd1c0e59d509754cce82cc4bb29919be0a457c05c96c4006c4364736f6c63430008090033",
  "linkReferences": {},
  "deployedLinkReferences": {}
}